{
  "contractName": "SuperVoting",
  "abi": [
    {
      "constant": false,
      "inputs": [
        {
          "name": "_tokenAddr",
          "type": "address"
        }
      ],
      "name": "setTokenAddress",
      "outputs": [],
      "payable": false,
      "type": "function"
    },
    {
      "constant": false,
      "inputs": [
        {
          "name": "_votingMechContract",
          "type": "address"
        }
      ],
      "name": "setVotingMech",
      "outputs": [],
      "payable": false,
      "type": "function"
    },
    {
      "constant": false,
      "inputs": [],
      "name": "getAdmin",
      "outputs": [
        {
          "name": "",
          "type": "address"
        }
      ],
      "payable": false,
      "type": "function"
    },
    {
      "inputs": [
        {
          "name": "_admin",
          "type": "address"
        }
      ],
      "payable": false,
      "type": "constructor"
    }
  ],
  "bytecode": "0x6060604052341561000f57600080fd5b604051602080610261833981016040528080519150505b60018054600160a060020a031916600160a060020a0383161790555b505b61020e806100536000396000f300606060405263ffffffff7c010000000000000000000000000000000000000000000000000000000060003504166326a4e8d2811461005357806350770443146100745780636e9960c314610095575b600080fd5b341561005e57600080fd5b610072600160a060020a03600435166100c4565b005b341561007f57600080fd5b610072600160a060020a036004351661010c565b005b34156100a057600080fd5b6100a86101d2565b604051600160a060020a03909116815260200160405180910390f35b60015433600160a060020a039081169116146100df57600080fd5b6002805473ffffffffffffffffffffffffffffffffffffffff1916600160a060020a0383161790555b5b50565b60015433600160a060020a0390811691161461012757600080fd5b6000805473ffffffffffffffffffffffffffffffffffffffff1916600160a060020a038381169190911791829055600254811691639130ffb791166040517c010000000000000000000000000000000000000000000000000000000063ffffffff8416028152600160a060020a039091166004820152602401600060405180830381600087803b15156101b957600080fd5b6102c65a03f115156101ca57600080fd5b5050505b5b50565b600154600160a060020a03165b905600a165627a7a72305820bfe0085f776a1dd00ff791e8381da0a88565a5bdf2d9c4ae16e41be19bfd43270029",
  "source": "pragma solidity ^0.4.15;\n\n\n/* This contract is to decide which voting mechanism we are using */\nimport \"./Token.sol\";\n\ncontract SuperVoting {\n    address votingMechContract;\n    address admin;\n    Token tok;\n\n    modifier isAdmin() {\n        require(msg.sender == admin);\n    \t_;\n    }\n\n    function SuperVoting(address _admin) public {\n  \t    admin = _admin;\n    }\n\n    function setTokenAddress(address _tokenAddr) isAdmin() public {\n        tok = Token(_tokenAddr);\n    }\n\n    function setVotingMech(address _votingMechContract) isAdmin() public {\n    \t/* setting voting mechanism */\n  \t\tvotingMechContract = _votingMechContract;\n\n    \t/* call token to update its votingmech contract */\n    \ttok.newVotingMechanism(votingMechContract);\n    }\n\n    function getAdmin() public returns(address) {\n        return admin;\n    }\n}\n",
  "sourcePath": "/Users/toneychang/B@B/fa17/CTTVoting/contracts/SuperVoting.sol",
  "schemaVersion": "1.0.0",
  "updatedAt": "2017-10-22T09:15:38.078Z"
}