{
  "contractName": "Token",
  "abi": [
    {
      "constant": false,
      "inputs": [
        {
          "name": "_spender",
          "type": "address"
        },
        {
          "name": "_value",
          "type": "uint256"
        }
      ],
      "name": "approve",
      "outputs": [
        {
          "name": "success",
          "type": "bool"
        }
      ],
      "payable": false,
      "type": "function"
    },
    {
      "constant": false,
      "inputs": [
        {
          "name": "account",
          "type": "address"
        },
        {
          "name": "newBalance",
          "type": "uint256"
        }
      ],
      "name": "unlockAccount",
      "outputs": [],
      "payable": false,
      "type": "function"
    },
    {
      "constant": true,
      "inputs": [],
      "name": "totalSupply",
      "outputs": [
        {
          "name": "",
          "type": "uint256"
        }
      ],
      "payable": false,
      "type": "function"
    },
    {
      "constant": false,
      "inputs": [
        {
          "name": "_from",
          "type": "address"
        },
        {
          "name": "_to",
          "type": "address"
        },
        {
          "name": "_value",
          "type": "uint256"
        }
      ],
      "name": "transferFrom",
      "outputs": [
        {
          "name": "success",
          "type": "bool"
        }
      ],
      "payable": false,
      "type": "function"
    },
    {
      "constant": false,
      "inputs": [
        {
          "name": "account",
          "type": "address"
        }
      ],
      "name": "lockAccount",
      "outputs": [],
      "payable": false,
      "type": "function"
    },
    {
      "constant": true,
      "inputs": [
        {
          "name": "_owner",
          "type": "address"
        }
      ],
      "name": "balanceOf",
      "outputs": [
        {
          "name": "balance",
          "type": "uint256"
        }
      ],
      "payable": false,
      "type": "function"
    },
    {
      "constant": false,
      "inputs": [
        {
          "name": "account",
          "type": "address"
        },
        {
          "name": "newBalance",
          "type": "uint256"
        }
      ],
      "name": "forceUpdate",
      "outputs": [],
      "payable": false,
      "type": "function"
    },
    {
      "constant": false,
      "inputs": [
        {
          "name": "_votingMechContract",
          "type": "address"
        }
      ],
      "name": "newVotingMechanism",
      "outputs": [],
      "payable": false,
      "type": "function"
    },
    {
      "constant": false,
      "inputs": [],
      "name": "getVotingMech",
      "outputs": [
        {
          "name": "",
          "type": "address"
        }
      ],
      "payable": false,
      "type": "function"
    },
    {
      "constant": false,
      "inputs": [
        {
          "name": "account",
          "type": "address"
        }
      ],
      "name": "lockedStatus",
      "outputs": [
        {
          "name": "",
          "type": "bool"
        }
      ],
      "payable": false,
      "type": "function"
    },
    {
      "constant": false,
      "inputs": [
        {
          "name": "_to",
          "type": "address"
        },
        {
          "name": "_value",
          "type": "uint256"
        }
      ],
      "name": "transfer",
      "outputs": [
        {
          "name": "success",
          "type": "bool"
        }
      ],
      "payable": false,
      "type": "function"
    },
    {
      "constant": true,
      "inputs": [
        {
          "name": "_owner",
          "type": "address"
        },
        {
          "name": "_spender",
          "type": "address"
        }
      ],
      "name": "allowance",
      "outputs": [
        {
          "name": "remaining",
          "type": "uint256"
        }
      ],
      "payable": false,
      "type": "function"
    },
    {
      "inputs": [
        {
          "name": "_superVotingContract",
          "type": "address"
        }
      ],
      "payable": false,
      "type": "constructor"
    },
    {
      "anonymous": false,
      "inputs": [
        {
          "indexed": true,
          "name": "_from",
          "type": "address"
        },
        {
          "indexed": true,
          "name": "_to",
          "type": "address"
        },
        {
          "indexed": false,
          "name": "_value",
          "type": "uint256"
        }
      ],
      "name": "Transfer",
      "type": "event"
    },
    {
      "anonymous": false,
      "inputs": [
        {
          "indexed": true,
          "name": "_owner",
          "type": "address"
        },
        {
          "indexed": true,
          "name": "_spender",
          "type": "address"
        },
        {
          "indexed": false,
          "name": "_value",
          "type": "uint256"
        }
      ],
      "name": "Approval",
      "type": "event"
    }
  ],
  "bytecode": "0x6060604052341561000f57600080fd5b604051602080610822833981016040528080519150505b60058054600160a060020a031916600160a060020a03831617905560006020819052600a7faf63dba574b8df870564c0cfef95996d0bf09a9de28de1e31994eb090e8e77378190557f51fb309f06bafadda6dd60adbce5b127369a3463545911e6444ab4017280494d819055734b0897b0513fdc7c541b6d9d7e929c4e5364d2db918290527fa6aacb555055bd32266218d6d0ea236ed2c924d70b84bea7c48eeb2d77d374845573ca35b7d915458ef540ade6068dfe2f44e8fa733c907314723a09acff6d2a60dcdf7aa4aff308fddc160c905b505050505b6107148061010e6000396000f300606060405236156100b75763ffffffff7c0100000000000000000000000000000000000000000000000000000000600035041663095ea7b381146100bc5780631565e099146100f257806318160ddd1461011657806323b872dd1461013b57806347a64f441461017757806370a082311461019857806386b33f0e146101c95780639130ffb7146101ed57806394d1da741461020e578063a6b2d9511461023d578063a9059cbb14610270578063dd62ed3e146102a6575b600080fd5b34156100c757600080fd5b6100de600160a060020a03600435166024356102dd565b604051901515815260200160405180910390f35b34156100fd57600080fd5b610114600160a060020a036004351660243561034a565b005b341561012157600080fd5b610129610395565b60405190815260200160405180910390f35b341561014657600080fd5b6100de600160a060020a036004358116906024351660443561039b565b604051901515815260200160405180910390f35b341561018257600080fd5b610114600160a060020a03600435166104be565b005b34156101a357600080fd5b610129600160a060020a0360043516610504565b60405190815260200160405180910390f35b34156101d457600080fd5b610114600160a060020a0360043516602435610523565b005b34156101f857600080fd5b610114600160a060020a036004351661056d565b005b341561021957600080fd5b6102216105b5565b604051600160a060020a03909116815260200160405180910390f35b341561024857600080fd5b6100de600160a060020a03600435166105c5565b604051901515815260200160405180910390f35b341561027b57600080fd5b6100de600160a060020a03600435166024356105e7565b604051901515815260200160405180910390f35b34156102b157600080fd5b610129600160a060020a03600435811690602435166106bb565b60405190815260200160405180910390f35b600160a060020a03338116600081815260026020908152604080832094871680845294909152808220859055909291907f8c5be1e5ebec7d5bd14f71427d1e84f3dd0314c0f7b2291e5b200ac8c7c3b9259085905190815260200160405180910390a35060015b92915050565b60045433600160a060020a0390811691161461036557600080fd5b61036f8282610523565b600160a060020a0382166000908152600160205260409020805460ff191690555b5b5050565b60035481565b600160a060020a038316600090815260016020526040812054849060ff16156103c357600080fd5b600160a060020a0385166000908152602081905260409020548390108015906104135750600160a060020a0380861660009081526002602090815260408083203390941683529290522054839010155b801561041f5750600083115b156104af57600160a060020a0380851660008181526020818152604080832080548901905589851680845281842080548a90039055600283528184203390961684529490915290819020805487900390559091907fddf252ad1be2c89b69c2b068fc378daa952ba7f163c4a11628f55a4df523b3ef9086905190815260200160405180910390a3600191506104b4565b600091505b5b5b509392505050565b60045433600160a060020a039081169116146104d957600080fd5b600160a060020a0381166000908152600160208190526040909120805460ff191690911790555b5b50565b600160a060020a0381166000908152602081905260409020545b919050565b60045433600160a060020a0390811691161461053e57600080fd5b600160a060020a038216600090815260208190526040902080546003805484019190910390558190555b5b5050565b60055433600160a060020a0390811691161461058857600080fd5b6004805473ffffffffffffffffffffffffffffffffffffffff1916600160a060020a0383161790555b5b50565b600454600160a060020a03165b90565b600160a060020a03811660009081526001602052604090205460ff165b919050565b33600160a060020a03811660009081526001602052604081205490919060ff161561061157600080fd5b600160a060020a03331660009081526020819052604090205483901080159061063a5750600083115b156106ad57600160a060020a033381166000818152602081905260408082208054889003905592871680825290839020805487019055917fddf252ad1be2c89b69c2b068fc378daa952ba7f163c4a11628f55a4df523b3ef9086905190815260200160405180910390a3600191506106b2565b600091505b5b5b5092915050565b600160a060020a038083166000908152600260209081526040808320938516835292905220545b929150505600a165627a7a72305820612fdfe201a58625f670be714bc8f9600c35ae3e752e6a20b24d11d28db239d80029",
  "source": "/*\nImplements ERC 20 Token standard: https://github.com/ethereum/EIPs/issues/20\nHas modifications\n.*/\n\npragma solidity ^0.4.15;\n\nimport \"./TokenInterface.sol\";\n\ncontract Token is TokenInterface {\n\n    mapping (address => uint256) balances;\n  \tmapping (address => bool) lockedAccounts;\n    mapping (address => mapping (address => uint256)) allowed;\n    uint256 public totalSupply;\n\n  \taddress votingMechContract;\n  \taddress superVotingContract;\n\n  \tmodifier notLocked(address account) {\n        require(!lockedAccounts[account]);\n      \t_;\n    }\n  \tmodifier isVotingMech() {\n        require(msg.sender == votingMechContract);\n      \t_;\n    }\n  \tmodifier isSuperVoting() {\n        require(msg.sender == superVotingContract);\n      \t_;\n    }\n\n  \tfunction Token(address _superVotingContract) public{\n        superVotingContract = _superVotingContract;\n        address account1 = address(0xca35b7d915458ef540ade6068dfe2f44e8fa733c);\n        balances[account1] = 10;\n        address account2 = address(0x14723a09acff6d2a60dcdf7aa4aff308fddc160c);\n        balances[account2] = 10;\n        address account3 = address(0x4b0897b0513fdc7c541b6d9d7e929c4e5364d2db);\n        balances[account3] = 10;\n    }\n\n    function transfer(address _to, uint256 _value) notLocked(msg.sender) public returns (bool success) {\n        //Default assumes totalSupply can't be over max (2^256 - 1).\n        //If your token leaves out totalSupply and can issue more tokens as time goes on, you need to check if it doesn't wrap.\n        //Replace the if with this one instead.\n        //if (balances[msg.sender] >= _value && balances[_to] + _value > balances[_to]) {\n        if (balances[msg.sender] >= _value && _value > 0) {\n            balances[msg.sender] -= _value;\n            balances[_to] += _value;\n            Transfer(msg.sender, _to, _value);\n            return true;\n        } else { return false; }\n    }\n\n    function transferFrom(address _from, address _to, uint256 _value) notLocked(_from) public returns (bool success) {\n        //same as above. Replace this line with the following if you want to protect against wrapping uints.\n        //if (balances[_from] >= _value && allowed[_from][msg.sender] >= _value && balances[_to] + _value > balances[_to]) {\n        if (balances[_from] >= _value && allowed[_from][msg.sender] >= _value && _value > 0) {\n            balances[_to] += _value;\n            balances[_from] -= _value;\n            allowed[_from][msg.sender] -= _value;\n            Transfer(_from, _to, _value);\n            return true;\n        } else { return false; }\n    }\n\n    function balanceOf(address _owner) constant public returns (uint256 balance) {\n        return balances[_owner];\n    }\n\n    function approve(address _spender, uint256 _value) public returns (bool success) {\n        allowed[msg.sender][_spender] = _value;\n        Approval(msg.sender, _spender, _value);\n        return true;\n    }\n\n    function allowance(address _owner, address _spender) constant public returns (uint256 remaining) {\n      \treturn allowed[_owner][_spender];\n    }\n\n  \t/* sets new voting mechanism */\n  \tfunction newVotingMechanism(address _votingMechContract) isSuperVoting() public {\n        votingMechContract = _votingMechContract;\n    }\n  \t/* locks account for address */\n  \tfunction lockAccount(address account) isVotingMech() public {\n        lockedAccounts[account] = true;\n    }\n  \t/* unlocks account for address, call after everyone has revealed ans has been charged */\n  \tfunction unlockAccount(address account, uint256 newBalance) isVotingMech() public {\n      \tforceUpdate(account, newBalance);\n    \tlockedAccounts[account] = false;\n    }\n  \t/* unlocks account for address, call after everyone has revealed ans has been charged */\n  \tfunction forceUpdate(address account, uint256 newBalance) isVotingMech() public {\n      \t/* update total supply after force update */\n      \ttotalSupply = totalSupply + newBalance - balances[account];\n      \tbalances[account] = newBalance;\n    }\n\n    function getVotingMech() public returns(address) {\n        return votingMechContract;\n    }\n\n    function lockedStatus(address account) public returns(bool) {\n        return lockedAccounts[account];\n    }\n}\n",
  "sourcePath": "/Users/toneychang/B@B/fa17/CTTVoting/contracts/Token.sol",
  "schemaVersion": "1.0.0",
  "updatedAt": "2017-10-22T09:15:38.097Z"
}