{
  "contractName": "VotingMechanism",
  "abi": [
    {
      "constant": false,
      "inputs": [
        {
          "name": "secret",
          "type": "bytes32"
        },
        {
          "name": "values",
          "type": "uint256[]"
        }
      ],
      "name": "reveal",
      "outputs": [],
      "payable": false,
      "type": "function"
    },
    {
      "constant": false,
      "inputs": [
        {
          "name": "account",
          "type": "address"
        }
      ],
      "name": "computeCharge",
      "outputs": [
        {
          "name": "",
          "type": "uint256"
        }
      ],
      "payable": false,
      "type": "function"
    },
    {
      "constant": false,
      "inputs": [
        {
          "name": "account",
          "type": "address"
        }
      ],
      "name": "getVote",
      "outputs": [
        {
          "name": "",
          "type": "bytes32"
        },
        {
          "name": "",
          "type": "uint256[]"
        }
      ],
      "payable": false,
      "type": "function"
    },
    {
      "constant": false,
      "inputs": [],
      "name": "moveToFinish",
      "outputs": [],
      "payable": false,
      "type": "function"
    },
    {
      "constant": false,
      "inputs": [
        {
          "name": "_vote",
          "type": "bytes32"
        }
      ],
      "name": "vote",
      "outputs": [],
      "payable": false,
      "type": "function"
    },
    {
      "constant": false,
      "inputs": [],
      "name": "unlock",
      "outputs": [],
      "payable": false,
      "type": "function"
    },
    {
      "constant": false,
      "inputs": [
        {
          "name": "values",
          "type": "uint256[]"
        }
      ],
      "name": "argmax",
      "outputs": [
        {
          "name": "",
          "type": "uint256"
        }
      ],
      "payable": false,
      "type": "function"
    },
    {
      "constant": false,
      "inputs": [
        {
          "name": "_question",
          "type": "string"
        },
        {
          "name": "_numOptions",
          "type": "uint256"
        },
        {
          "name": "_phaseLength",
          "type": "uint256"
        }
      ],
      "name": "newVotingSession",
      "outputs": [],
      "payable": false,
      "type": "function"
    },
    {
      "constant": true,
      "inputs": [],
      "name": "getQuestion",
      "outputs": [
        {
          "name": "",
          "type": "string"
        }
      ],
      "payable": false,
      "type": "function"
    },
    {
      "constant": false,
      "inputs": [],
      "name": "moveToReveal",
      "outputs": [],
      "payable": false,
      "type": "function"
    },
    {
      "inputs": [
        {
          "name": "_admin",
          "type": "address"
        },
        {
          "name": "_tokenaddr",
          "type": "address"
        }
      ],
      "payable": false,
      "type": "constructor"
    }
  ],
  "bytecode": "0x60606040526000600255670de0b6b3a7640000600555670e043da617250000600655341561002c57600080fd5b6040516040806112fc83398101604052808051919060200180519150505b60008054600160a060020a03808516600160a060020a03199283161790925560018054928416929091169190911790555b50505b61126f8061008d6000396000f300606060405236156100885763ffffffff60e060020a6000350416637c22141c811461008d57806380633f11146100e35780638d337b811461011457806398957ef21461018e578063a69beaba146101a3578063a69df4b5146101bb578063d5346ee2146101d0578063e05fd86514610231578063eff38f921461028b578063f4d5b6af14610316575b600080fd5b341561009857600080fd5b6100e16004803590604460248035908101908301358060208181020160405190810160405280939291908181526020018383602002808284375094965061032b95505050505050565b005b34156100ee57600080fd5b610102600160a060020a036004351661063f565b60405190815260200160405180910390f35b341561011f57600080fd5b610133600160a060020a036004351661086b565b60405182815260406020820181815290820183818151815260200191508051906020019060200280838360005b838110156101795780820151818401525b602001610160565b50505050905001935050505060405180910390f35b341561019957600080fd5b6100e16108fe565b005b34156101ae57600080fd5b6100e160043561099c565b005b34156101c657600080fd5b6100e1610bad565b005b34156101db57600080fd5b6101026004602481358181019083013580602081810201604051908101604052809392919081815260200183836020028082843750949650610d6295505050505050565b60405190815260200160405180910390f35b341561023c57600080fd5b6100e160046024813581810190830135806020601f8201819004810201604051908101604052818152929190602084018383808284375094965050843594602001359350610dc092505050565b005b341561029657600080fd5b61029e610f01565b60405160208082528190810183818151815260200191508051906020019080838360005b838110156102db5780820151818401525b6020016102c2565b50505050905090810190601f1680156103085780820380516001836020036101000a031916815260200191505b509250505060405180910390f35b341561032157600080fd5b6100e1610fc0565b005b600060015b6002805460009081526003602052604090206005015460ff169081111561035357fe5b1461035d57600080fd5b6002546000908152600360208190526040909120600481015491015443031061038557600080fd5b6002546000908152600360209081526040808320600160a060020a033316845260060190915290819020548491849190839083905182815260208101828051906020019060200280838360005b838110156103eb5780820151818401525b6020016103d2565b50505050905001925050506040519081900390201461040957600080fd5b6002546000908152600360209081526040808320600160a060020a033316845260060190915290206001015460ff1680156104755750600254600090815260036020908152604080832033600160a060020a03168452600601909152902060010154610100900460ff16155b151561048057600080fd5b838061048b82610d62565b8151811061049557fe5b90602001906020020151600154600160a060020a03166370a082313360006040516020015260405160e060020a63ffffffff8416028152600160a060020a039091166004820152602401602060405180830381600087803b15156104f857600080fd5b6102c65a03f1151561050957600080fd5b505050604051805190501015151561052057600080fd5b600254600090815260036020526040902060010154859081511461054357600080fd5b600094505b60028054600090815260036020526040902001548510156105bb5785858151811061056f57fe5b90602001906020020151600254600090815260036020526040902060010180548790811061059957fe5b906000526020600020900160005b50805490910190555b600190940193610548565b600280546000908152600360209081526040808320600160a060020a03331684526006019091529020018680516105f69291602001906110e7565b506002546000908152600360209081526040808320600160a060020a03331684526006019091529020600101805461ff0019166101001790555b5b505b505b5b50505b5b505050565b6000806000806000600360006002548152602001908152602001600020600201549350836040518059106106705750595b908082528060200260200182016040525b5060079080516106959291602001906110e7565b50600092505b8383101561074557600280546000908152600360209081526040808320600160a060020a038b1684526006019091529020018054849081106106d957fe5b906000526020600020900160005b5054600254600090815260036020526040902060010180548590811061070957fe5b906000526020600020900160005b50540360078481548110151561072957fe5b906000526020600020900160005b50555b60019092019161069b565b6107b46003600060025481526020019081526020016000206001018054806020026020016040519081016040528092919081815260200182805480156107aa57602002820191906000526020600020905b815481526020019060010190808311610796575b5050505050610d62565b915061080f60078054806020026020016040519081016040528092919081815260200182805480156107aa57602002820191906000526020600020905b815481526020019060010190808311610796575b5050505050610d62565b905081811461085c57600780548390811061082657fe5b906000526020600020900160005b5054600780548390811061084457fe5b906000526020600020900160005b5054039450610861565b600094505b5b50505050919050565b6000610875611133565b60028054600090815260036020908152604080832033600160a060020a03168452600601825291829020805493018054909283928281020190519081016040528092919081815260200182805480156108ed57602002820191906000526020600020905b8154815260200190600101908083116108d9575b50505050509050915091505b915091565b60005433600160a060020a0390811691161461091957600080fd5b60015b6002805460009081526003602052604090206005015460ff169081111561093f57fe5b1461094957600080fd5b600254600090815260036020819052604090912060048101549101544303101561097257600080fd5b600280546000908152600360205260409020600501805460ff19166001835b02179055505b5b5b5b565b60005b6002805460009081526003602052604090206005015460ff16908111156109c257fe5b146109cc57600080fd5b6002546000908152600360209081526040808320600160a060020a033316845260060190915290206001015460ff1615610a0557600080fd5b60025460009081526003602081905260409091206004810154910154430310610a2d57600080fd5b600160a060020a03331660009081526004602052604090205415610a5057600080fd5b608060405190810160409081528282526001602080840191909152600082840181905260028054825260039092528290200154606083019151805910610a935750595b908082528060200260200182016040525b5090526002546000908152600360209081526040808320600160a060020a0333168452600601909152902081518155602082015160018201805460ff191691151591909117905560408201516001820180549115156101000261ff0019909216919091179055606082015181600201908051610b249291602001906110e7565b505060025433600160a060020a0381811660009081526004602052604090819020939093556001541692506347a64f44915160e060020a63ffffffff8416028152600160a060020a039091166004820152602401600060405180830381600087803b1515610b9157600080fd5b6102c65a03f11515610ba257600080fd5b5050505b5b5b5b5b50565b60008060025460001480610be4575060025b6002805460009081526003602052604090206005015460ff1690811115610be257fe5b145b1515610bef57600080fd5b33600160a060020a0316600081815260046020908152604080832054835260038252808320938352600690930190522060010154610100900460ff161515610c3f57610c3a33611078565b610d43565b610c483361063f565b6005546006546001549294509091600160a060020a03166370a082313360006040516020015260405160e060020a63ffffffff8416028152600160a060020a039091166004820152602401602060405180830381600087803b1515610cac57600080fd5b6102c65a03f11515610cbd57600080fd5b5050506040518051905002811515610cd157fe5b6001549190049150600160a060020a03166386b33f0e3384840360405160e060020a63ffffffff8516028152600160a060020a0390921660048301526024820152604401600060405180830381600087803b1515610d2e57600080fd5b6102c65a03f11515610d3f57600080fd5b5050505b600160a060020a0333166000908152600460205260408120555b5b5050565b6000806000805b8451811015610db45782858281518110610d7f57fe5b906020019060200201511115610dab57848181518110610d9b57fe5b9060200190602002015192508091505b5b600101610d69565b8193505b505050919050565b6000805433600160a060020a03908116911614610ddc57600080fd5b6002541580610e0e575060025b6002805460009081526003602052604090206005015460ff1690811115610e0c57fe5b145b1515610e1957600080fd5b506002805460010190554360c06040519081016040528085815260200184604051805910610e445750595b908082528060200260200182016040525b50815260208101859052604081018390526060810184905260800160005b90526002546000908152600360205260409020815181908051610e9a929160200190611191565b50602082015181600101908051610eb59291602001906110e7565b5060408201518160020155606082015181600301556080820151816004015560a082015160058201805460ff19166001836002811115610ef157fe5b021790555050505b5b5b50505050565b610f09611133565b6003600060025481526020019081526020016000206000018054600181600116156101000203166002900480601f016020809104026020016040519081016040528092919081815260200182805460018160011615610100020316600290048015610fb55780601f10610f8a57610100808354040283529160200191610fb5565b820191906000526020600020905b815481529060010190602001808311610f9857829003601f168201915b505050505090505b90565b60005433600160a060020a03908116911614610fdb57600080fd5b60005b6002805460009081526003602052604090206005015460ff169081111561100157fe5b1461100b57600080fd5b600254600090815260036020819052604090912060048101549101544303101561103457600080fd5b600254600090815260036020526040902060050180546001919060ff191682805b02179055506002546000908152600360208190526040909120439101555b5b5b5b565b600154600160a060020a03166386b33f0e82600060405160e060020a63ffffffff8516028152600160a060020a0390921660048301526024820152604401600060405180830381600087803b1515610b9157600080fd5b6102c65a03f11515610ba257600080fd5b5050505b50565b828054828255906000526020600020908101928215611122579160200282015b82811115611122578251825591602001919060010190611107565b5b5061112f929150611222565b5090565b60206040519081016040526000815290565b828054828255906000526020600020908101928215611122579160200282015b82811115611122578251825591602001919060010190611107565b5b5061112f929150611222565b5090565b828054600181600116156101000203166002900490600052602060002090601f016020900481019282601f106111d257805160ff1916838001178555611122565b82800160010185558215611122579182015b82811115611122578251825591602001919060010190611107565b5b5061112f929150611222565b5090565b60206040519081016040526000815290565b610fbd91905b8082111561112f5760008155600101611228565b5090565b905600a165627a7a72305820952aacd470ced56affc04927f7fddd23bf025b5782798312d90a3865f2dbf1010029",
  "source": "pragma solidity ^0.4.15;\n\n/* This contract is our implementation of how voting should be done for shareholders in a company */\n\nimport \"./Token.sol\";\n\ncontract VotingMechanism {\n\n    address admin;\n    Token tok;\n    enum VotingState {Voting, Revealing, Finished}\n    struct VotingSession {\n        /* What is your favo? 1. opfjdsa 2.dfjkaslf 3.fdjkslajf */\n        string question;\n        uint[] totalVotes;\n        uint numOptions;\n        uint startingPhaseTime;\n        uint phaseLength;\n        VotingState state;\n        mapping (address => Vote) voters;\n    }\n    uint currentSession = 0;\n    mapping (uint => VotingSession) votingSessions;\n  \t// Last session that each user has participated in\n  \t// If last voting session is 0, then the user can vote again\n    mapping (address => uint) lockedSessions;\n\n  \t//interest would be like 1.001 * 10^18, so that interest/interestFactor = 1 + interest percentage\n    uint interestFactor = 10**18;\n  \t//needs to be a uint cuz solidity doesn't do floats -_-\n    uint interest = (101)*(10**16);\n    //interest should really be a construction / config parameter\n    struct Vote {\n        /* H(_vote[]||secret) stored here for each voter */\n        bytes32 blindedVote;\n        bool voted;\n        bool revealed;\n      \tuint[] values;\n    }\n\n    uint[] altResults;\n\n    modifier isVoting() { require(votingSessions[currentSession].state == VotingState.Voting); _; }\n  \tmodifier unlocked() { require(lockedSessions[msg.sender] == 0); _; }\n    /* so that they can't vote twice */\n    modifier notYetVoted() { require(!votingSessions[currentSession].voters[msg.sender].voted); _; }\n    modifier isAdmin() { require(msg.sender == admin); _; }\n    modifier isRevealing() { require(votingSessions[currentSession].state == VotingState.Revealing);_; }\n    modifier notYetRevealed() { require(votingSessions[currentSession].voters[msg.sender].voted && !votingSessions[currentSession].voters[msg.sender].revealed); _; }\n    modifier hasFunds(uint[] values) { require(tok.balanceOf(msg.sender) >= values[argmax(values)]); _; }\n    modifier validCommitment(bytes32 secret, uint[] votes) { require(keccak256(secret,votes) == votingSessions[currentSession].voters[msg.sender].blindedVote);_; }\n    modifier isFinished() { require(currentSession == 0 || votingSessions[currentSession].state == VotingState.Finished);_; }\n  \t/* checks if the voter is within phaseLength for phase (VOTING or REVEAL) */\n    modifier validPhaseTime() { require(block.number - votingSessions[currentSession].startingPhaseTime < votingSessions[currentSession].phaseLength);_; }\n    /* checks if the voter is past phaseLength to poke and change state */\n    modifier isPastPhaseTime() { require(block.number - votingSessions[currentSession].startingPhaseTime >= votingSessions[currentSession].phaseLength);_; }\n  \tmodifier checkValLength(uint[] values) { require(values.length == votingSessions[currentSession].totalVotes.length);_; }\n\n    function VotingMechanism(address _admin, address _tokenaddr) public {\n        admin = _admin;\n        tok = Token(_tokenaddr);\n    }\n\n    /* Creates a new voting session with _question as question+ options and _numOptions options.\n       Checks that msg.sender = admin and previous voting session is finished or is the first session. */\n    function newVotingSession(string _question, uint _numOptions, uint _phaseLength) isAdmin() isFinished() public {\n        /* question:  what is your favo? 1. jkfdlasjfa 2.jkldfsjds 3.fjdklsajfds */\n        currentSession += 1;\n        uint currBlockTime = block.number;\n        votingSessions[currentSession] = VotingSession(_question,\n                                                       new uint[](_numOptions),\n                                                       _numOptions,\n                                                       currBlockTime,\n                                                       _phaseLength,\n                                                       VotingState.Voting);\n    }\n\n    /* Gets question and choices of current voting session's */\n    function getQuestion() public constant returns (string) {\n        return votingSessions[currentSession].question;\n    }\n\n    /* admin can poke contract to next phase voting -> reveal */\n    function moveToReveal() isAdmin() isVoting() isPastPhaseTime() {\n        votingSessions[currentSession].state = VotingState.Revealing;\n      \tvotingSessions[currentSession].startingPhaseTime = block.number;\n    }\n\n    /* admin can poke contract to next phase reveal -> finish */\n    function moveToFinish() isAdmin() isRevealing() isPastPhaseTime() {\n        votingSessions[currentSession].state = VotingState.Finished;\n    }\n\n    /* create a vote takes in an input of a hashed secret key and your array of votes */\n    function vote(bytes32 _vote)\n  \t\tisVoting()\n        notYetVoted()\n        validPhaseTime()\n        unlocked()\n    {\n        votingSessions[currentSession].voters[msg.sender] = Vote(_vote,\n                                                                 true,\n                                                                 false,\n                                                                 new uint[](votingSessions[currentSession].numOptions));\n        lockedSessions[msg.sender] = currentSession;\n        tok.lockAccount(msg.sender);\n    }\n\n    /* reveal real votes */\n    function reveal(bytes32 secret, uint[] values)\n  \t\tisRevealing()\n        validPhaseTime()\n        validCommitment(secret, values)\n        notYetRevealed()\n        hasFunds(values)\n        checkValLength(values)\n    {\n        for (uint i = 0; i < votingSessions[currentSession].numOptions; i++) {\n            votingSessions[currentSession].totalVotes[i] += values[i];\n        }\n      \tvotingSessions[currentSession].voters[msg.sender].values = values;\n        votingSessions[currentSession].voters[msg.sender].revealed = true;\n    }\n\n    /* called at any time after revealing */\n    function unlock() isFinished() {\n      \t/* if didn't reveal, then slash all funds */\n        if (!votingSessions[lockedSessions[msg.sender]].voters[msg.sender].revealed) {\n            slash(msg.sender);\n        } else {\n            uint charge = computeCharge(msg.sender);\n            //pay small interest to voters as incentive for participation\n            uint balanceWithInterest = (tok.balanceOf(msg.sender)*interest) / interestFactor;\n            tok.forceUpdate(msg.sender, balanceWithInterest - charge);\n        }\n      \t/* can vote again */\n      \tlockedSessions[msg.sender] = 0;\n    }\n\n  \t/* if winner with total votes is different than winner with (totalvotes - your votes) then your\n       vote was decisive, and you should be charged the amount charged, is the margin by which the alterntive\n       winner would have won by which is less than your vote for the winning value, since your vote was decisive */\n  \tfunction computeCharge(address account) returns (uint) {\n    \tuint numOptions = votingSessions[currentSession].numOptions;\n        altResults = new uint[](numOptions);\n        //Calculate result of vote without this voter, to find their externality\n        for (uint i = 0; i < numOptions; i++) {\n            altResults[i] = votingSessions[currentSession].totalVotes[i] - votingSessions[currentSession].voters[account].values[i];\n        }\n        uint realWinner = argmax(votingSessions[currentSession].totalVotes);\n        uint altWinner = argmax(altResults);\n        if (realWinner != altWinner) {\n            return altResults[altWinner] - altResults[realWinner];\n        } else {\n          \treturn 0;\n        }\n    }\n\n  \tfunction argmax(uint[] values) returns (uint) {\n        uint maxVal;\n        uint idx;\n        for (uint i; i < values.length; i++) {\n            if (values[i] > maxVal) {\n                maxVal = values[i];\n                idx = i;\n            }\n        }\n        return idx;\n    }\n\n\n    /* if a voter does not reveal in time, then he loses all access to his tokens */\n    function slash(address account) private {\n    \ttok.forceUpdate(account, 0);\n    }\n\n    function getVote(address account) public returns (bytes32, uint[]) {\n        return (votingSessions[currentSession].voters[msg.sender].blindedVote, votingSessions[currentSession].voters[msg.sender].values);\n    }\n\n}\n",
  "sourcePath": "/Users/toneychang/B@B/fa17/CTTVoting/contracts/VotingMechanism.sol",
  "schemaVersion": "1.0.0",
  "updatedAt": "2017-10-22T09:15:38.120Z"
}